{
  "contractName": "Sun_Login",
  "abi": [
    {
      "constant": true,
      "inputs": [
        {
          "name": "",
          "type": "address"
        }
      ],
      "name": "login_details",
      "outputs": [
        {
          "name": "",
          "type": "string"
        }
      ],
      "payable": false,
      "stateMutability": "view",
      "type": "function"
    },
    {
      "constant": true,
      "inputs": [
        {
          "name": "",
          "type": "address"
        }
      ],
      "name": "access_rights",
      "outputs": [
        {
          "name": "mysql",
          "type": "bool"
        },
        {
          "name": "solaris",
          "type": "bool"
        },
        {
          "name": "ring",
          "type": "uint256"
        }
      ],
      "payable": false,
      "stateMutability": "view",
      "type": "function"
    },
    {
      "constant": true,
      "inputs": [],
      "name": "owner",
      "outputs": [
        {
          "name": "",
          "type": "address"
        }
      ],
      "payable": false,
      "stateMutability": "view",
      "type": "function"
    },
    {
      "inputs": [],
      "payable": false,
      "stateMutability": "nonpayable",
      "type": "constructor"
    },
    {
      "constant": false,
      "inputs": [
        {
          "name": "addr",
          "type": "address"
        },
        {
          "name": "index",
          "type": "uint256"
        }
      ],
      "name": "grant_access",
      "outputs": [],
      "payable": false,
      "stateMutability": "nonpayable",
      "type": "function"
    },
    {
      "constant": false,
      "inputs": [
        {
          "name": "_uuid",
          "type": "string"
        }
      ],
      "name": "login_promise",
      "outputs": [],
      "payable": false,
      "stateMutability": "nonpayable",
      "type": "function"
    },
    {
      "constant": false,
      "inputs": [
        {
          "name": "_uuid",
          "type": "string"
        }
      ],
      "name": "login",
      "outputs": [],
      "payable": false,
      "stateMutability": "nonpayable",
      "type": "function"
    },
    {
      "constant": false,
      "inputs": [
        {
          "name": "_uuid",
          "type": "string"
        }
      ],
      "name": "get_address",
      "outputs": [
        {
          "name": "",
          "type": "address"
        }
      ],
      "payable": false,
      "stateMutability": "nonpayable",
      "type": "function"
    },
    {
      "constant": false,
      "inputs": [
        {
          "name": "_uuid",
          "type": "string"
        }
      ],
      "name": "is_login",
      "outputs": [
        {
          "name": "",
          "type": "bool"
        }
      ],
      "payable": false,
      "stateMutability": "nonpayable",
      "type": "function"
    }
  ],
  "bytecode": "0x608060405234801561001057600080fd5b50336000806101000a81548173ffffffffffffffffffffffffffffffffffffffff021916908373ffffffffffffffffffffffffffffffffffffffff160217905550610caf806100606000396000f30060806040526004361061008e576000357c0100000000000000000000000000000000000000000000000000000000900463ffffffff16806308bf7013146100935780633a7d280c1461014f5780635ab31de6146101b8578063666d758e146102395780636ba44d3c146102865780637c39563c1461032f5780638da5cb5b1461039c578063d5ab3174146103f3575b600080fd5b34801561009f57600080fd5b506100d4600480360381019080803573ffffffffffffffffffffffffffffffffffffffff16906020019092919050505061045c565b6040518080602001828103825283818151815260200191508051906020019080838360005b838110156101145780820151818401526020810190506100f9565b50505050905090810190601f1680156101415780820380516001836020036101000a031916815260200191505b509250505060405180910390f35b34801561015b57600080fd5b506101b6600480360381019080803590602001908201803590602001908080601f016020809104026020016040519081016040528093929190818152602001838380828437820191505050505050919291929050505061050c565b005b3480156101c457600080fd5b5061021f600480360381019080803590602001908201803590602001908080601f01602080910402602001604051908101604052809392919081815260200183838082843782019150505050505091929192905050506106d8565b604051808215151515815260200191505060405180910390f35b34801561024557600080fd5b50610284600480360381019080803573ffffffffffffffffffffffffffffffffffffffff1690602001909291908035906020019092919050505061089b565b005b34801561029257600080fd5b506102ed600480360381019080803590602001908201803590602001908080601f0160208091040260200160405190810160405280939291908181526020018383808284378201915050505050509192919290505050610a33565b604051808273ffffffffffffffffffffffffffffffffffffffff1673ffffffffffffffffffffffffffffffffffffffff16815260200191505060405180910390f35b34801561033b57600080fd5b50610370600480360381019080803573ffffffffffffffffffffffffffffffffffffffff169060200190929190505050610ac8565b604051808415151515815260200183151515158152602001828152602001935050505060405180910390f35b3480156103a857600080fd5b506103b1610b0c565b604051808273ffffffffffffffffffffffffffffffffffffffff1673ffffffffffffffffffffffffffffffffffffffff16815260200191505060405180910390f35b3480156103ff57600080fd5b5061045a600480360381019080803590602001908201803590602001908080601f0160208091040260200160405190810160405280939291908181526020018383808284378201915050505050509192919290505050610b31565b005b60026020528060005260406000206000915090508054600181600116156101000203166002900480601f0160208091040260200160405190810160405280929190818152602001828054600181600116156101000203166002900480156105045780601f106104d957610100808354040283529160200191610504565b820191906000526020600020905b8154815290600101906020018083116104e757829003601f168201915b505050505081565b6000600260003373ffffffffffffffffffffffffffffffffffffffff1673ffffffffffffffffffffffffffffffffffffffff16815260200190815260200160002090508060405180828054600181600116156101000203166002900480156105ab5780601f106105895761010080835404028352918201916105ab565b820191906000526020600020905b815481529060010190602001808311610597575b5050915050604051809103902060001916826040518082805190602001908083835b6020831015156105f257805182526020820191506020810190506020830392506105cd565b6001836020036101000a03801982511681845116808217855250505050505090500191505060405180910390206000191614156106d457336003836040518082805190602001908083835b602083101515610662578051825260208201915060208101905060208303925061063d565b6001836020036101000a038019825116818451168082178552505050505050905001915050908152602001604051809103902060006101000a81548173ffffffffffffffffffffffffffffffffffffffff021916908373ffffffffffffffffffffffffffffffffffffffff1602179055505b5050565b60008060006003846040518082805190602001908083835b60208310151561071557805182526020820191506020810190506020830392506106f0565b6001836020036101000a038019825116818451168082178552505050505050905001915050908152602001604051809103902060009054906101000a900473ffffffffffffffffffffffffffffffffffffffff169150600260008373ffffffffffffffffffffffffffffffffffffffff1673ffffffffffffffffffffffffffffffffffffffff1681526020019081526020016000209050836040518082805190602001908083835b6020831015156107e257805182526020820191506020810190506020830392506107bd565b6001836020036101000a03801982511681845116808217855250505050505090500191505060405180910390206000191681604051808280546001816001161561010002031660029004801561086f5780601f1061084d57610100808354040283529182019161086f565b820191906000526020600020905b81548152906001019060200180831161085b575b5050915050604051809103902060001916141561088f5760019250610894565b600092505b5050919050565b60008060009054906101000a900473ffffffffffffffffffffffffffffffffffffffff1673ffffffffffffffffffffffffffffffffffffffff163373ffffffffffffffffffffffffffffffffffffffff161415610a2e57600160008473ffffffffffffffffffffffffffffffffffffffff1673ffffffffffffffffffffffffffffffffffffffff1681526020019081526020016000209050600082141561095e5760018160000160006101000a81548160ff021916908315150217905550610986565b60018214156109855760018160000160016101000a81548160ff0219169083151502179055505b5b80600160008573ffffffffffffffffffffffffffffffffffffffff1673ffffffffffffffffffffffffffffffffffffffff1681526020019081526020016000206000820160009054906101000a900460ff168160000160006101000a81548160ff0219169083151502179055506000820160019054906101000a900460ff168160000160016101000a81548160ff021916908315150217905550600182015481600101559050505b505050565b60006003826040518082805190602001908083835b602083101515610a6d5780518252602082019150602081019050602083039250610a48565b6001836020036101000a038019825116818451168082178552505050505050905001915050908152602001604051809103902060009054906101000a900473ffffffffffffffffffffffffffffffffffffffff169050919050565b60016020528060005260406000206000915090508060000160009054906101000a900460ff16908060000160019054906101000a900460ff16908060010154905083565b6000809054906101000a900473ffffffffffffffffffffffffffffffffffffffff1681565b6000809054906101000a900473ffffffffffffffffffffffffffffffffffffffff1673ffffffffffffffffffffffffffffffffffffffff163373ffffffffffffffffffffffffffffffffffffffff161415610bdb5780600260003373ffffffffffffffffffffffffffffffffffffffff1673ffffffffffffffffffffffffffffffffffffffff1681526020019081526020016000209080519060200190610bd9929190610bde565b505b50565b828054600181600116156101000203166002900490600052602060002090601f016020900481019282601f10610c1f57805160ff1916838001178555610c4d565b82800160010185558215610c4d579182015b82811115610c4c578251825591602001919060010190610c31565b5b509050610c5a9190610c5e565b5090565b610c8091905b80821115610c7c576000816000905550600101610c64565b5090565b905600a165627a7a72305820080219463f4091a10df1d753a30e924e68fcde40f931183f6abd283356728d4f0029",
  "source": "pragma solidity ^0.4.24;\r\n\r\n//contract for login into microsoft\r\ncontract Sun_Login {\r\n    address public owner;\r\n\r\n    struct License {\r\n        bool mysql;\r\n        bool solaris;\r\n        uint ring;\r\n    }\r\n    mapping(address=> License) public access_rights;\r\n\r\n\r\n    mapping(address=> string) public login_details;\r\n    mapping(string=> address)  login_details_rev;\r\n    \r\n    constructor() public {\r\n        owner = msg.sender;\r\n    }\r\n\r\n    modifier restricted() {\r\n        if (msg.sender == owner) _;\r\n    }\r\n\r\n    function grant_access(address addr,uint index)public restricted{\r\n        License lic=access_rights[addr];\r\n        if(index==0)\r\n            lic.mysql=true;\r\n        else if (index==1)\r\n            lic.solaris=true;\r\n        access_rights[addr]=lic;\r\n    }\r\n    function login_promise(string _uuid) public restricted{\r\n        login_details[msg.sender] = _uuid;\r\n    }\r\n    //put a safety net here. he sud only be able to edit the uuid where his address is written. otherwise he might arbitaryly edit somebody elses uuid\r\n    function login(string _uuid) public {\r\n        string _uuid2=login_details[msg.sender];\r\n        if(keccak256(_uuid) == keccak256(_uuid2)){\r\n            login_details_rev[_uuid] = msg.sender;\r\n        }\r\n    }\r\n    function get_address(string _uuid) public returns (address) {\r\n        return login_details_rev[_uuid];\r\n    }\r\n    \r\n\r\n    function is_login(string _uuid) public returns (bool) {\r\n        address _address = login_details_rev[_uuid];\r\n        string _uuid_old = login_details[_address];\r\n        if(keccak256(_uuid_old) == keccak256(_uuid)){\r\n            return true;\r\n        }\r\n        return false;\r\n    }\r\n}\r\n",
  "sourcePath": "D:\\Apps\\dapps\\hackathon\\smartcontracts\\contracts\\Sun_Login.sol",
  "compiler": {
    "name": "solc",
    "version": "0.4.24+commit.e67f0147.Emscripten.clang"
  },
  "schemaVersion": "2.0.1",
  "updatedAt": "2018-07-25T15:55:19.189Z"
}