{
  "contractName": "MS_Login",
  "abi": [
    {
      "constant": true,
      "inputs": [
        {
          "name": "",
          "type": "address"
        }
      ],
      "name": "login_details",
      "outputs": [
        {
          "name": "",
          "type": "string"
        }
      ],
      "payable": false,
      "stateMutability": "view",
      "type": "function"
    },
    {
      "constant": true,
      "inputs": [
        {
          "name": "",
          "type": "address"
        }
      ],
      "name": "access_rights",
      "outputs": [
        {
          "name": "visual_studio",
          "type": "bool"
        },
        {
          "name": "office365",
          "type": "bool"
        },
        {
          "name": "ring",
          "type": "uint256"
        }
      ],
      "payable": false,
      "stateMutability": "view",
      "type": "function"
    },
    {
      "constant": true,
      "inputs": [],
      "name": "owner",
      "outputs": [
        {
          "name": "",
          "type": "address"
        }
      ],
      "payable": false,
      "stateMutability": "view",
      "type": "function"
    },
    {
      "inputs": [],
      "payable": false,
      "stateMutability": "nonpayable",
      "type": "constructor"
    },
    {
      "constant": false,
      "inputs": [],
      "name": "grant_access",
      "outputs": [],
      "payable": false,
      "stateMutability": "nonpayable",
      "type": "function"
    },
    {
      "constant": false,
      "inputs": [
        {
          "name": "_uuid",
          "type": "string"
        }
      ],
      "name": "login_promise",
      "outputs": [],
      "payable": false,
      "stateMutability": "nonpayable",
      "type": "function"
    },
    {
      "constant": false,
      "inputs": [
        {
          "name": "_uuid",
          "type": "string"
        }
      ],
      "name": "login",
      "outputs": [],
      "payable": false,
      "stateMutability": "nonpayable",
      "type": "function"
    },
    {
      "constant": false,
      "inputs": [
        {
          "name": "_uuid",
          "type": "string"
        }
      ],
      "name": "get_address",
      "outputs": [
        {
          "name": "",
          "type": "address"
        }
      ],
      "payable": false,
      "stateMutability": "nonpayable",
      "type": "function"
    },
    {
      "constant": false,
      "inputs": [
        {
          "name": "_uuid",
          "type": "string"
        }
      ],
      "name": "is_login",
      "outputs": [
        {
          "name": "",
          "type": "bool"
        }
      ],
      "payable": false,
      "stateMutability": "nonpayable",
      "type": "function"
    }
  ],
  "bytecode": "0x608060405234801561001057600080fd5b50336000806101000a81548173ffffffffffffffffffffffffffffffffffffffff021916908373ffffffffffffffffffffffffffffffffffffffff160217905550610af0806100606000396000f30060806040526004361061008e576000357c0100000000000000000000000000000000000000000000000000000000900463ffffffff16806308bf7013146100935780633a7d280c1461014f5780635ab31de6146101b85780636ba44d3c146102395780637c39563c146102e25780638da5cb5b1461034f578063cd68df61146103a6578063d5ab3174146103bd575b600080fd5b34801561009f57600080fd5b506100d4600480360381019080803573ffffffffffffffffffffffffffffffffffffffff169060200190929190505050610426565b6040518080602001828103825283818151815260200191508051906020019080838360005b838110156101145780820151818401526020810190506100f9565b50505050905090810190601f1680156101415780820380516001836020036101000a031916815260200191505b509250505060405180910390f35b34801561015b57600080fd5b506101b6600480360381019080803590602001908201803590602001908080601f01602080910402602001604051908101604052809392919081815260200183838082843782019150505050505091929192905050506104d6565b005b3480156101c457600080fd5b5061021f600480360381019080803590602001908201803590602001908080601f01602080910402602001604051908101604052809392919081815260200183838082843782019150505050505091929192905050506106a2565b604051808215151515815260200191505060405180910390f35b34801561024557600080fd5b506102a0600480360381019080803590602001908201803590602001908080601f0160208091040260200160405190810160405280939291908181526020018383808284378201915050505050509192919290505050610865565b604051808273ffffffffffffffffffffffffffffffffffffffff1673ffffffffffffffffffffffffffffffffffffffff16815260200191505060405180910390f35b3480156102ee57600080fd5b50610323600480360381019080803573ffffffffffffffffffffffffffffffffffffffff1690602001909291905050506108fa565b604051808415151515815260200183151515158152602001828152602001935050505060405180910390f35b34801561035b57600080fd5b5061036461093e565b604051808273ffffffffffffffffffffffffffffffffffffffff1673ffffffffffffffffffffffffffffffffffffffff16815260200191505060405180910390f35b3480156103b257600080fd5b506103bb610963565b005b3480156103c957600080fd5b50610424600480360381019080803590602001908201803590602001908080601f0160208091040260200160405190810160405280939291908181526020018383808284378201915050505050509192919290505050610972565b005b60026020528060005260406000206000915090508054600181600116156101000203166002900480601f0160208091040260200160405190810160405280929190818152602001828054600181600116156101000203166002900480156104ce5780601f106104a3576101008083540402835291602001916104ce565b820191906000526020600020905b8154815290600101906020018083116104b157829003601f168201915b505050505081565b6000600260003373ffffffffffffffffffffffffffffffffffffffff1673ffffffffffffffffffffffffffffffffffffffff16815260200190815260200160002090508060405180828054600181600116156101000203166002900480156105755780601f10610553576101008083540402835291820191610575565b820191906000526020600020905b815481529060010190602001808311610561575b5050915050604051809103902060001916826040518082805190602001908083835b6020831015156105bc5780518252602082019150602081019050602083039250610597565b6001836020036101000a038019825116818451168082178552505050505050905001915050604051809103902060001916141561069e57336003836040518082805190602001908083835b60208310151561062c5780518252602082019150602081019050602083039250610607565b6001836020036101000a038019825116818451168082178552505050505050905001915050908152602001604051809103902060006101000a81548173ffffffffffffffffffffffffffffffffffffffff021916908373ffffffffffffffffffffffffffffffffffffffff1602179055505b5050565b60008060006003846040518082805190602001908083835b6020831015156106df57805182526020820191506020810190506020830392506106ba565b6001836020036101000a038019825116818451168082178552505050505050905001915050908152602001604051809103902060009054906101000a900473ffffffffffffffffffffffffffffffffffffffff169150600260008373ffffffffffffffffffffffffffffffffffffffff1673ffffffffffffffffffffffffffffffffffffffff1681526020019081526020016000209050836040518082805190602001908083835b6020831015156107ac5780518252602082019150602081019050602083039250610787565b6001836020036101000a0380198251168184511680821785525050505050509050019150506040518091039020600019168160405180828054600181600116156101000203166002900480156108395780601f10610817576101008083540402835291820191610839565b820191906000526020600020905b815481529060010190602001808311610825575b50509150506040518091039020600019161415610859576001925061085e565b600092505b5050919050565b60006003826040518082805190602001908083835b60208310151561089f578051825260208201915060208101905060208303925061087a565b6001836020036101000a038019825116818451168082178552505050505050905001915050908152602001604051809103902060009054906101000a900473ffffffffffffffffffffffffffffffffffffffff169050919050565b60016020528060005260406000206000915090508060000160009054906101000a900460ff16908060000160019054906101000a900460ff16908060010154905083565b6000809054906101000a900473ffffffffffffffffffffffffffffffffffffffff1681565b6000809054906101000a905050565b6000809054906101000a900473ffffffffffffffffffffffffffffffffffffffff1673ffffffffffffffffffffffffffffffffffffffff163373ffffffffffffffffffffffffffffffffffffffff161415610a1c5780600260003373ffffffffffffffffffffffffffffffffffffffff1673ffffffffffffffffffffffffffffffffffffffff1681526020019081526020016000209080519060200190610a1a929190610a1f565b505b50565b828054600181600116156101000203166002900490600052602060002090601f016020900481019282601f10610a6057805160ff1916838001178555610a8e565b82800160010185558215610a8e579182015b82811115610a8d578251825591602001919060010190610a72565b5b509050610a9b9190610a9f565b5090565b610ac191905b80821115610abd576000816000905550600101610aa5565b5090565b905600a165627a7a72305820c8925334d0121495173a66b170b004df571e22e98cd5369c3038ef4820a369c70029",
  "source": "pragma solidity ^0.4.24;\r\n\r\n//contract for login into microsoft\r\ncontract MS_Login {\r\n    address public owner;\r\n\r\n    struct License {\r\n        bool visual_studio;\r\n        bool office365;\r\n        uint ring;\r\n    }\r\n    mapping(address=> License) public access_rights;\r\n\r\n\r\n    mapping(address=> string) public login_details;\r\n    mapping(string=> address)  login_details_rev;\r\n    \r\n    constructor() public {\r\n        owner = msg.sender;\r\n    }\r\n\r\n    modifier restricted() {\r\n        if (msg.sender == owner) _;\r\n    }\r\n\r\n    function grant_access()public restricted{\r\n\r\n    }\r\n    function login_promise(string _uuid) public restricted{\r\n        login_details[msg.sender] = _uuid;\r\n    }\r\n    //put a safety net here. he sud only be able to edit the uuid where his address is written. otherwise he might arbitaryly edit somebody elses uuid\r\n    function login(string _uuid) public {\r\n        string _uuid2=login_details[msg.sender];\r\n        if(keccak256(_uuid) == keccak256(_uuid2)){\r\n            login_details_rev[_uuid] = msg.sender;\r\n        }\r\n    }\r\n    function get_address(string _uuid) public returns (address) {\r\n        return login_details_rev[_uuid];\r\n    }\r\n    \r\n\r\n    function is_login(string _uuid) public returns (bool) {\r\n        address _address = login_details_rev[_uuid];\r\n        string _uuid_old = login_details[_address];\r\n        if(keccak256(_uuid_old) == keccak256(_uuid)){\r\n            return true;\r\n        }\r\n        return false;\r\n    }\r\n}\r\n",
  "sourcePath": "D:\\Apps\\dapps\\hackathon\\test1\\contracts\\MS_Login.sol",
  "compiler": {
    "name": "solc",
    "version": "0.4.24+commit.e67f0147.Emscripten.clang"
  },
  "schemaVersion": "2.0.1",
  "updatedAt": "2018-07-25T10:19:14.981Z"
}