{
  "contractName": "MS_Login",
  "abi": [
    {
      "constant": true,
      "inputs": [
        {
          "name": "",
          "type": "address"
        }
      ],
      "name": "login_details",
      "outputs": [
        {
          "name": "",
          "type": "string"
        }
      ],
      "payable": false,
      "stateMutability": "view",
      "type": "function"
    },
    {
      "constant": true,
      "inputs": [
        {
          "name": "",
          "type": "address"
        }
      ],
      "name": "access_rights",
      "outputs": [
        {
          "name": "visual_studio",
          "type": "bool"
        },
        {
          "name": "office365",
          "type": "bool"
        },
        {
          "name": "ring",
          "type": "uint256"
        }
      ],
      "payable": false,
      "stateMutability": "view",
      "type": "function"
    },
    {
      "constant": true,
      "inputs": [],
      "name": "owner",
      "outputs": [
        {
          "name": "",
          "type": "address"
        }
      ],
      "payable": false,
      "stateMutability": "view",
      "type": "function"
    },
    {
      "inputs": [],
      "payable": false,
      "stateMutability": "nonpayable",
      "type": "constructor"
    },
    {
      "constant": false,
      "inputs": [],
      "name": "grant_access",
      "outputs": [],
      "payable": false,
      "stateMutability": "nonpayable",
      "type": "function"
    },
    {
      "constant": false,
      "inputs": [
        {
          "name": "_uuid",
          "type": "string"
        }
      ],
      "name": "login",
      "outputs": [],
      "payable": false,
      "stateMutability": "nonpayable",
      "type": "function"
    },
    {
      "constant": false,
      "inputs": [
        {
          "name": "_uuid",
          "type": "string"
        }
      ],
      "name": "address_from_uuid",
      "outputs": [
        {
          "name": "",
          "type": "address"
        }
      ],
      "payable": false,
      "stateMutability": "nonpayable",
      "type": "function"
    },
    {
      "constant": false,
      "inputs": [
        {
          "name": "_uuid",
          "type": "string"
        }
      ],
      "name": "is_login",
      "outputs": [
        {
          "name": "",
          "type": "bool"
        }
      ],
      "payable": false,
      "stateMutability": "nonpayable",
      "type": "function"
    }
  ],
  "bytecode": "0x608060405234801561001057600080fd5b50336000806101000a81548173ffffffffffffffffffffffffffffffffffffffff021916908373ffffffffffffffffffffffffffffffffffffffff16021790555061080b806100606000396000f300608060405260043610610083576000357c0100000000000000000000000000000000000000000000000000000000900463ffffffff16806308bf7013146100885780633a7d280c146101445780635ab31de6146101ad5780637b6748ae1461022e5780637c39563c146102d75780638da5cb5b14610344578063cd68df611461039b575b600080fd5b34801561009457600080fd5b506100c9600480360381019080803573ffffffffffffffffffffffffffffffffffffffff1690602001909291905050506103b2565b6040518080602001828103825283818151815260200191508051906020019080838360005b838110156101095780820151818401526020810190506100ee565b50505050905090810190601f1680156101365780820380516001836020036101000a031916815260200191505b509250505060405180910390f35b34801561015057600080fd5b506101ab600480360381019080803590602001908201803590602001908080601f0160208091040260200160405190810160405280939291908181526020018383808284378201915050505050509192919290505050610462565b005b3480156101b957600080fd5b50610214600480360381019080803590602001908201803590602001908080601f016020809104026020016040519081016040528093929190818152602001838380828437820191505050505050919291929050505061050f565b604051808215151515815260200191505060405180910390f35b34801561023a57600080fd5b50610295600480360381019080803590602001908201803590602001908080601f01602080910402602001604051908101604052809392919081815260200183838082843782019150505050505091929192905050506106d2565b604051808273ffffffffffffffffffffffffffffffffffffffff1673ffffffffffffffffffffffffffffffffffffffff16815260200191505060405180910390f35b3480156102e357600080fd5b50610318600480360381019080803573ffffffffffffffffffffffffffffffffffffffff169060200190929190505050610767565b604051808415151515815260200183151515158152602001828152602001935050505060405180910390f35b34801561035057600080fd5b506103596107ab565b604051808273ffffffffffffffffffffffffffffffffffffffff1673ffffffffffffffffffffffffffffffffffffffff16815260200191505060405180910390f35b3480156103a757600080fd5b506103b06107d0565b005b60026020528060005260406000206000915090508054600181600116156101000203166002900480601f01602080910402602001604051908101604052809291908181526020018280546001816001161561010002031660029004801561045a5780601f1061042f5761010080835404028352916020019161045a565b820191906000526020600020905b81548152906001019060200180831161043d57829003601f168201915b505050505081565b336003826040518082805190602001908083835b60208310151561049b5780518252602082019150602081019050602083039250610476565b6001836020036101000a038019825116818451168082178552505050505050905001915050908152602001604051809103902060006101000a81548173ffffffffffffffffffffffffffffffffffffffff021916908373ffffffffffffffffffffffffffffffffffffffff16021790555050565b60008060006003846040518082805190602001908083835b60208310151561054c5780518252602082019150602081019050602083039250610527565b6001836020036101000a038019825116818451168082178552505050505050905001915050908152602001604051809103902060009054906101000a900473ffffffffffffffffffffffffffffffffffffffff169150600260008373ffffffffffffffffffffffffffffffffffffffff1673ffffffffffffffffffffffffffffffffffffffff1681526020019081526020016000209050836040518082805190602001908083835b60208310151561061957805182526020820191506020810190506020830392506105f4565b6001836020036101000a0380198251168184511680821785525050505050509050019150506040518091039020600019168160405180828054600181600116156101000203166002900480156106a65780601f106106845761010080835404028352918201916106a6565b820191906000526020600020905b815481529060010190602001808311610692575b505091505060405180910390206000191614156106c657600192506106cb565b600092505b5050919050565b60006003826040518082805190602001908083835b60208310151561070c57805182526020820191506020810190506020830392506106e7565b6001836020036101000a038019825116818451168082178552505050505050905001915050908152602001604051809103902060009054906101000a900473ffffffffffffffffffffffffffffffffffffffff169050919050565b60016020528060005260406000206000915090508060000160009054906101000a900460ff16908060000160019054906101000a900460ff16908060010154905083565b6000809054906101000a900473ffffffffffffffffffffffffffffffffffffffff1681565b6000809054906101000a9050505600a165627a7a72305820fecb657c09dbf23887b1033382d024e90152f68729a3a0c701cd7a67339b03fe0029",
  "source": "pragma solidity ^0.4.24;\r\n\r\n//contract for login into microsoft\r\ncontract MS_Login {\r\n    address public owner;\r\n\r\n    struct License {\r\n        bool visual_studio;\r\n        bool office365;\r\n        uint ring;\r\n    }\r\n    mapping(address=> License) public access_rights;\r\n\r\n    //Authentication is a 2 step process. \r\n    //Step1: You send an address to the server and say that this is your address\r\n    //Step2: You have to prove it. You can do this by sending your private key to the server but you dont want to do that. \r\n    //So it happens in the following way.\r\n    //Server maintain a map of address to uuid and says now mention this uuid in any transaction that comes from this address\r\n    //At client side take that uuid and from that address, create a transaction by calling login mentioning the uuid\r\n    //At client we  will store the uuid to address map in the contract\r\n    //Authentication wil only be possible if the uuid pointed address is the same one which made the change in  login_details_rev\r\n\r\n    mapping(address=> string)  public login_details;//filled by server\r\n    mapping(string=> address)   login_details_rev;//filled by client\r\n    \r\n    constructor() public {\r\n        owner = msg.sender;\r\n    }\r\n\r\n    modifier restricted() {\r\n        if (msg.sender == owner) _;\r\n    }\r\n\r\n    //Executed by server\r\n    function grant_access()public restricted{\r\n\r\n    }\r\n    //Executed by client. Not by server\r\n    function login(string _uuid) public {\r\n        login_details_rev[_uuid] = msg.sender;\r\n\r\n    }\r\n\r\n    function address_from_uuid(string _uuid) public returns (address) {\r\n        return login_details_rev[_uuid];\r\n    }\r\n\r\n\r\n    //tells if a uuid has got a successful login. if yes read the coresponding address from login_details_rev\r\n    function is_login(string _uuid) public returns (bool) {\r\n        address _address = login_details_rev[_uuid];\r\n        string _uuid_old = login_details[_address];\r\n        if(keccak256(_uuid_old) == keccak256(_uuid)){\r\n            return true;\r\n        }\r\n        return false;\r\n    }\r\n}\r\n",
  "sourcePath": "D:\\Apps\\dapps\\hackathon\\test1\\contracts\\MS_Login.sol",
  "compiler": {
    "name": "solc",
    "version": "0.4.24+commit.e67f0147.Emscripten.clang"
  },
  "schemaVersion": "2.0.1",
  "updatedAt": "2018-07-23T14:02:52.879Z"
}