{
  "contractName": "Registration",
  "abi": [
    {
      "constant": true,
      "inputs": [
        {
          "name": "",
          "type": "address"
        }
      ],
      "name": "users",
      "outputs": [
        {
          "name": "username",
          "type": "string"
        },
        {
          "name": "name",
          "type": "string"
        },
        {
          "name": "profilepicture",
          "type": "string"
        }
      ],
      "payable": false,
      "stateMutability": "view",
      "type": "function"
    },
    {
      "constant": false,
      "inputs": [
        {
          "name": "_username",
          "type": "string"
        },
        {
          "name": "_name",
          "type": "string"
        },
        {
          "name": "_profilepicture",
          "type": "string"
        }
      ],
      "name": "add_data",
      "outputs": [],
      "payable": false,
      "stateMutability": "nonpayable",
      "type": "function"
    }
  ],
  "bytecode": "0x608060405234801561001057600080fd5b50610656806100206000396000f30060806040526004361061004c576000357c0100000000000000000000000000000000000000000000000000000000900463ffffffff168063a87430ba14610051578063cb1ec523146101e5575b600080fd5b34801561005d57600080fd5b50610092600480360381019080803573ffffffffffffffffffffffffffffffffffffffff1690602001909291905050506102da565b60405180806020018060200180602001848103845287818151815260200191508051906020019080838360005b838110156100da5780820151818401526020810190506100bf565b50505050905090810190601f1680156101075780820380516001836020036101000a031916815260200191505b50848103835286818151815260200191508051906020019080838360005b83811015610140578082015181840152602081019050610125565b50505050905090810190601f16801561016d5780820380516001836020036101000a031916815260200191505b50848103825285818151815260200191508051906020019080838360005b838110156101a657808201518184015260208101905061018b565b50505050905090810190601f1680156101d35780820380516001836020036101000a031916815260200191505b50965050505050505060405180910390f35b3480156101f157600080fd5b506102d8600480360381019080803590602001908201803590602001908080601f0160208091040260200160405190810160405280939291908181526020018383808284378201915050505050509192919290803590602001908201803590602001908080601f0160208091040260200160405190810160405280939291908181526020018383808284378201915050505050509192919290803590602001908201803590602001908080601f01602080910402602001604051908101604052809392919081815260200183838082843782019150505050505091929192905050506104cc565b005b6000602052806000526040600020600091509050806000018054600181600116156101000203166002900480601f0160208091040260200160405190810160405280929190818152602001828054600181600116156101000203166002900480156103865780601f1061035b57610100808354040283529160200191610386565b820191906000526020600020905b81548152906001019060200180831161036957829003601f168201915b505050505090806001018054600181600116156101000203166002900480601f0160208091040260200160405190810160405280929190818152602001828054600181600116156101000203166002900480156104245780601f106103f957610100808354040283529160200191610424565b820191906000526020600020905b81548152906001019060200180831161040757829003601f168201915b505050505090806002018054600181600116156101000203166002900480601f0160208091040260200160405190810160405280929190818152602001828054600181600116156101000203166002900480156104c25780601f10610497576101008083540402835291602001916104c2565b820191906000526020600020905b8154815290600101906020018083116104a557829003601f168201915b5050505050905083565b606060405190810160405280848152602001838152602001828152506000803373ffffffffffffffffffffffffffffffffffffffff1673ffffffffffffffffffffffffffffffffffffffff1681526020019081526020016000206000820151816000019080519060200190610542929190610585565b50602082015181600101908051906020019061055f929190610585565b50604082015181600201908051906020019061057c929190610585565b50905050505050565b828054600181600116156101000203166002900490600052602060002090601f016020900481019282601f106105c657805160ff19168380011785556105f4565b828001600101855582156105f4579182015b828111156105f35782518255916020019190600101906105d8565b5b5090506106019190610605565b5090565b61062791905b8082111561062357600081600090555060010161060b565b5090565b905600a165627a7a7230582076a61032d339be59eccdca49d573c122c0a4dc40ffd0c7588dbd5bdab5f6e9ed0029",
  "source": "pragma solidity ^0.4.24;\r\n\r\ncontract Registration {\r\n    struct UserDetails {\r\n        string username;\r\n        string name;\r\n        string profilepicture;\r\n    }\r\n    mapping(address => UserDetails) public users;\r\n    \r\n\r\n    function add_data(string _username,string _name,string _profilepicture ) public {\r\n        users[msg.sender] = UserDetails(_username,_name,_profilepicture);\r\n\r\n    }\r\n}\r\n",
  "sourcePath": "D:\\Apps\\dapps\\hackathon\\test1\\contracts\\Registration.sol",
  "compiler": {
    "name": "solc",
    "version": "0.4.24+commit.e67f0147.Emscripten.clang"
  },
  "schemaVersion": "2.0.1",
  "updatedAt": "2018-07-25T05:28:58.751Z"
}